:100000000C94BD010C94E5010C94E5010C94E50100
:100010000C94E5010C94E5010C94E5010C94E501C8
:100020000C94E5010C94E5010C94E5010C94E501B8
:100030000C94E5010C94E5010C94E5010C94E501A8
:100040000C94AA0B0C94E5010C941A0C0C94F40B70
:100050000C94E5010C94E5010C94E5010C94E50188
:100060000C94E5010C94E50100407A10F35A00A0CD
:10007000724E18090010A5D4E80000E87648170071
:1000800000E40B54020000CA9A3B000000E1F505B1
:10009000000080969800000040420F000000A086FB
:1000A00001000000102700000000E803000000002D
:1000B0006400000000000A000000000001000000D1
:1000C00000002C76D888DC674F0823DFC1DFAE59EB
:1000D000E1B1B796E5E3E453C63AE651997696E87E
:1000E000E6C28426EB898C9B62ED407C6FFCEFBC02
:1000F0009C9F40F2BAA56FA5F490055A2AF75C932D
:100100006B6CF9676DC11BFCE0E40D47FEF520E662
:10011000B500D0ED902E0300943577050080841E45
:10012000080000204E0A000000C80C333333330FA0
:10013000986E12831141EF8D2114893BE65516CF3D
:10014000FEE6DB18D1844B381BF77C1D901DA4BB49
:10015000E424203284725E228100C9F124ECA1E5FE
:100160003D27000000002300260029002D2D2D2D05
:100170002D2D2D2D2D2D2D2D2D2D2D2D2D2D2D2DAF
:100180002D2D2D2D2D2D2D2D2D2D2D2D2D2D2D2D9F
:100190000025005265736F6C7574696F6E3A20208C
:1001A0000025004D696E2056616C75653A2020204F
:1001B0000025004D61782056616C75653A2020203D
:1001C00000556E697175652049443A20202000442D
:1001D0007269766572205665723A20200053656E0A
:1001E000736F7220547970653A200048756D6964A8
:1001F0006974792053656E736F72002D2D2D2D2D2E
:100200002D2D2D2D2D2D2D2D2D2D2D2D2D2D2D2D1E
:100210002D2D2D2D2D2D2D2D2D2D2D2D2D2D2D003B
:10022000C2B043005265736F6C7574696F6E3A208B
:100230002000C2B043004D696E2056616C75653A6E
:1002400020202000C2B043004D61782056616C75BB
:10025000653A20202000556E697175652049443A41
:1002600020202000447269766572205665723A201B
:10027000200053656E736F7220547970653A2000C8
:1002800054656D70657261747572652053656E7327
:100290006F72002D2D2D2D2D2D2D2D2D2D2D2D2D34
:1002A0002D2D2D2D2D2D2D2D2D2D2D2D2D2D2D2D7E
:1002B0002D2D2D2D2D2D2D00444854787820556E50
:1002C00069666965642053656E736F722045786155
:1002D0006D706C65004572726F7220726561646941
:1002E0006E672068756D6964697479210025002541
:1002F0000048756D69646974793A00C2B04300546E
:10030000656D70657261747572653A200045727230
:100310006F722072656164696E672074656D7065C7
:1003200072617475726521000000000024002700CE
:100330002A0000000000250028002B000000000813
:10034000000201000003040700000000000000009C
:10035000040404040404040402020202020203036B
:100360000303030301020408102040800102040873
:1003700010200102040810204C0C11241FBECFEFE6
:10038000D8E0DEBFCDBF22E0A0EAB1E001C01D92FF
:10039000A938B207E1F711E0A0E0B1E0ECE9FEE234
:1003A00002C005900D92A03AB107D9F711E0CDEB4C
:1003B000D1E004C02197FE010E942814CC3BD10754
:1003C000C9F70E943B0D0C944C170C94000090E070
:1003D000FC01E45CFC4F2491FC01EC59FC4F34918E
:1003E000FC01E05BFC4FE491EE23C9F0222339F0DD
:1003F000233001F1A8F4213019F1223029F1F0E085
:10040000EE0FFF1FEE5CFC4FA591B4918FB7F894EF
:10041000EC91611126C030953E233C938FBF089527
:100420002730A9F02830C9F0243049F780918000A6
:100430008F7D03C0809180008F7780938000DFCF15
:1004400084B58F7784BDDBCF84B58F7DFBCF809162
:10045000B0008F778093B000D2CF8091B0008F7DB5
:10046000F9CF3E2BDACFCF93DF9390E0FC01EC592C
:10047000FC4F2491805B9C4FFC0184918823D1F038
:1004800090E0880F991FFC01E85DFC4FA591B491A5
:10049000FC01EE5CFC4FC591D491623071F49FB7C2
:1004A000F8943C91822F809583238C93E8812E2BA6
:1004B00028839FBFDF91CF9108958FB7F894EC9177
:1004C0002E2B2C938FBFF6CF3FB7F8948091A501C8
:1004D0009091A601A091A701B091A80126B5A89B73
:1004E00005C02F3F19F00196A11DB11D3FBFBA2FC6
:1004F000A92F982F8827BC01CD01620F711D811D86
:10050000911D42E0660F771F881F991F4A95D1F70A
:1005100008958F929F92AF92BF92CF92DF92EF9207
:10052000FF926B017C010E9464024B015C01C114CB
:10053000D104E104F104B9F00E9464026819790958
:100540008A099B09683E73408105910580F321E08B
:10055000C21AD108E108F10888EE880E83E0981EDF
:10056000A11CB11CE4CFFF90EF90DF90CF90BF9023
:10057000AF909F908F900895EF92FF920F931F93EB
:10058000CF93DF938C017B01D0E0C0E0F701EC0F4B
:10059000FD1F6491662361F0D801ED91FC910190FB
:1005A000F081E02DC8010995892B11F02196EECF3D
:1005B000CE01DF91CF911F910F91FF90EF900895A1
:1005C000AF92BF92CF92DF92EF92FF920F931F9361
:1005D000CF93DF936C017B018B01040F151FEB019F
:1005E0005E01AE18BF08C017D10759F06991D60156
:1005F000ED91FC910190F081E02DC6010995892BC8
:1006000079F7C501DF91CF911F910F91FF90EF9086
:10061000DF90CF90BF90AF900895FC01538D448D33
:10062000252F30E0842F90E0821B930B541710F09D
:10063000CF96089501970895FC01918D828D9817AA
:1006400061F0A28DAE0FBF2FB11D5D968C91928D82
:100650009F5F9F73928F90E008958FEF9FEF0895B3
:10066000FC01918D828D981731F0828DE80FF11D7C
:10067000858D90E008958FEF9FEF0895FC01918D97
:10068000228D892F90E0805C9F4F821B91098F7390
:10069000992708958DEA91E00E943E0321E0892B7D
:1006A00009F420E0822F089580E090E0892B29F062
:1006B0000E944A0381110C9400000895FC01A48D4E
:1006C000A80FB92FB11DA35ABF4F2C91848D90E074
:1006D00001968F739927848FA689B7892C93A08957
:1006E000B1898C91837080648C93938D848D9813E1
:1006F00006C00288F389E02D80818F7D8083089574
:10070000EF92FF920F931F93CF93DF93EC0181E061
:10071000888F9B8D8C8D98131AC0E889F989808108
:1007200085FF15C09FB7F894EE89FF896083E8893B
:10073000F98980818370806480839FBF81E090E02D
:10074000DF91CF911F910F91FF90EF900895F62EBA
:100750000B8D10E00F5F1F4F0F731127E02E8C8D54
:100760008E110CC00FB607FCFACFE889F989808199
:1007700085FFF5CFCE010E945E03F1CFEB8DEC0F2C
:10078000FD2FF11DE35AFF4FF0829FB7F8940B8FB6
:10079000EA89FB8980818062CFCFCF93DF93EC0120
:1007A000888D8823B9F0AA89BB89E889F9898C9159
:1007B00085FD03C0808186FD0DC00FB607FCF7CF15
:1007C0008C9185FFF2CF808185FFEDCFCE010E9415
:1007D0005E03E9CFDF91CF910895CF92DF92EF9240
:1007E000FF92CF93DF93DC011796CC911797D0E05F
:1007F0006111DC2F18962C91189730E0220F331FCF
:100800002E593E4F50E040E0F90185919491FC0152
:10081000F080BA0190E080E0EF2DEC23ED1310C0E2
:100820004F5F5F4F1D96CD90DD90ED90FC905097FF
:100830006C157D058E059F0538F36FEF7FEFCB01BB
:10084000DF91CF91FF90EF90DF90CF9008958F923E
:100850009F92AF92BF92CF92DF92EF92FF920F934F
:100860001F93CF93DF93CDB7DEB7C054D1400FB6FF
:10087000F894DEBF0FBECDBF2FB7F8944091A90109
:100880005091AA016091AB017091AC012FBFFC01A6
:1008900001851285238534856A017B01C01AD10A3E
:1008A000E20AF30A97018601003D17402105310550
:1008B000B0F4FC018189C05CDE4F0FB6F894DEBF56
:1008C0000FBECDBFDF91CF911F910F91FF90EF90A1
:1008D000DF90CF90BF90AF909F908F9008958C0144
:1008E000FC014187528763877487148213821282C6
:1008F0001182108262E085810E94330261E070E023
:1009000080E090E00E94890261E0F80185810E9408
:10091000330260E0F80185810E94E701F8018681D9
:100920008551823028F58BE291E10197F1F762E081
:10093000F80185810E943302F801828990E08230BB
:10094000910538F0880F991F880F991F0597019717
:10095000F1F7F89460E0C8010E94ED036F3F7F4F0C
:100960008F4F9F4F61F4F801118A789480E0A3CFF4
:1009700064E170E080E090E00E948902D8CF61E0FD
:10098000C8010E94ED036F3F7F4F8F4F9F4F59F378
:10099000CE0101967C015E019FEBA91A9EEFB90A78
:1009A000670160E0C8010E94ED03F6016083718376
:1009B0008283938361E0C8010E94ED03F6016483A2
:1009C000758386839783F8E0CF0ED11CCA14DB04AD
:1009D00041F7789430E020E0F70180809180A28098
:1009E000B3804481558166817781FFEF8F169F0622
:1009F000AF06BF0631F04F3F8FEF58076807780703
:100A000019F4F801118AB2CFF90183E0F595E79561
:100A10008A95E1F7E00FF11F8081880F8416950613
:100A2000A606B706F0F080832F5F3F4FF8E0EF0E89
:100A3000F11C2832310581F6F80144812081818141
:100A4000280F3327331F8281280F311D8381820FA6
:100A5000932F911D99274817190699F681E0818BEC
:100A60002ACF8160E0CFFC0183898B3051F480E490
:100A700092E4AFE0B0E0FB0184A395A3A6A3B7A3E3
:100A8000089580E894E8AEE1B0E0F5CFBF92CF9250
:100A9000DF92EF92FF920F931F93CF93DF938C011E
:100AA000B42E6C018EE0C80ED11CD0E0C0E0E62E62
:100AB000F12CB7010C2E02C0759567950A94E2F7E8
:100AC0006170F60181916F010E94E7012196CB15BB
:100AD00080F361E0F80185850E94E70160E0F8019C
:100AE0008585DF91CF911F910F91FF90EF90DF905F
:100AF000CF90BF900C94E701FC0186898F3F71F085
:100B000021853285662329F0232B31F461E00C9492
:100B1000E70121303105D1F360E0F9CF0895EF927C
:100B2000FF921F93CF93DF93EC01162F7A0161E0C0
:100B3000812F0E9433021E8BFA86E986E881F981B3
:100B40000484F585E02D60E0CE01DF91CF911F9107
:100B5000FF90EF9009940F931F93CF93DF93EC01D5
:100B6000162F042F61E0413009F060E08B850E9470
:100B7000E7018C858F3F19F060E00E94E7010230A9
:100B800079F08C8148E084FD0CC0612F70E084E036
:100B9000759567958A95E1F744E0CE010E94460578
:100BA00044E0612FCE01DF91CF911F910F910C9402
:100BB0004605DC01ED91FC910684F785E02D41E0CE
:100BC000099581E090E00895DC01ED91FC910684A7
:100BD000F785E02D40E00994CF93DF93CDB7DEB7E2
:100BE00028970FB6F894DEBF0FBECDBF4091060127
:100BF0005091070160910801709109014D835E8356
:100C00006F83788740910A0150910B0160910C012C
:100C100070910D0149835A836B837C83209151022B
:100C2000821710F08FEF820F90E0309152028C0FFC
:100C30009D1FFC01303181F4243071F461816068C2
:100C40008AE492E028960FB6F894DEBF0FBECDBFBF
:100C5000DF91CF910C94E4056581F1CF0F931F9341
:100C6000CF93DF93EC01423018F08C8188608C8345
:100C70004F836887222329F0413019F48C818460E6
:100C80008C8364E670E080E090E00E9489026C81D1
:100C900064FD5CC0E881F9810684F785E02D42E0BF
:100CA00063E0CE0109958BE496E40197F1F7E881C2
:100CB000F9810684F785E02D42E063E0CE010995D5
:100CC00003E512E0C8010197F1F7E881F981068494
:100CD000F785E02D42E063E0CE010995C801019758
:100CE000F1F7E881F9810684F785E02D42E062E0C2
:100CF000CE010995C8010197F1F76C816062CE01C0
:100D00000E94E4058BEE90E00197F1F784E08D837B
:100D10006CE0CE010E94E40561E0CE010E94E40592
:100D20008BE39FE10197F1F782E08E8366E0CE01CD
:100D30000E94E405E881F9810484F585E02D6FEFD8
:100D4000CE01DF91CF911F910F9109946062CE0186
:100D50000E94E4058BE496E40197F1F76C816062F0
:100D6000CE010E94E40503E512E0C8010197F1F706
:100D70006C816062CE010E94E405BCCF08950895A5
:100D8000089590E080E0089508950895FB01019092
:100D90000020E9F73197AF01461B570BDC01ED91BD
:100DA000FC910280F381E02D09948F929F92AF9283
:100DB000BF920F931F93CF93DF93CDB7DEB7A19769
:100DC0000FB6F894DEBF0FBECDBF19A2423008F4B3
:100DD0004AE08E010F5D1F4F842E912CB12CA12C67
:100DE000A50194010E94E713E62FB901CA01EA3078
:100DF00004F5E05DD801EE938D01232B242B252BE8
:100E000079F790E080E0109729F0BD018DEA91E03C
:100E10000E94C606A1960FB6F894DEBF0FBECDBFE6
:100E2000DF91CF911F910F91BF90AF909F908F90C6
:100E30000895E95CDFCF4F925F926F927F928F921D
:100E40009F92AF92BF92CF92DF92EF92FF920F9359
:100E50001F93CF936B017C01742EAC019B010E9408
:100E6000411560E571E0811126C046015701E89403
:100E7000B7F82FEF3FEF4FE75FE7C501B4010E94DE
:100E8000411581110CC02FEF3FEF4FE75FE7C50120
:100E9000B4010E948C1264E571E0181664F02FEF23
:100EA0003FEF4FE75FE4C701B6010E943C151816FB
:100EB000ACF468E571E08DEA91E0CF911F910F915C
:100EC000FF90EF90DF90CF90BF90AF909F908F906A
:100ED0007F906F905F904F900C94C6062FEF3FEF7E
:100EE0004FE75FECC701B6010E948C1287FDE1CF8E
:100EF00020E030E0A901C701B6010E948C1210E089
:100F000000E087FF0AC06DE28DEA91E00E94800355
:100F10008C01F7FAF094F7F8F094C0E060E070E02C
:100F200080E09FE37C1641F020E030E040E251E4B5
:100F30000E949B14CF5FF6CFA70196010E942F1449
:100F40002B013C010E940D154B015C014AE00E94FF
:100F5000D5067C01E00EF11ECC23C1F1C501B40120
:100F60000E9491129B01AC01C301B2010E942E1498
:100F70004B015C016EE28DEA91E00E948003E80E75
:100F8000F91EC15018F120E030E040E251E4C50103
:100F9000B4010E94F2122B013C010E940D154B017D
:100FA000B12CA12C4AE0C501B4010E94D506E80E7F
:100FB000F91EC501B4010E9491129B01AC01C3014D
:100FC000B2010E942E144B015C01DBCFC701CF910F
:100FD0001F910F91FF90EF90DF90CF90BF90AF9057
:100FE0009F908F907F906F905F904F900895CF92D9
:100FF000DF92EF92FF92CF93DF936B017C01F7FEBC
:1010000021C06DE28DEA91E00E948003EC01662729
:101010007727CB016C197D098E099F094AE00E9450
:10102000D506C80FD91F6CE571E08DEA91E00E94EA
:10103000C6068C0F9D1FDF91CF91FF90EF90DF9040
:10104000CF9008954AE00E94D506EC01ECCF0F93B3
:101050001F93CF93DF93EC010E94BC028C016CE5DF
:1010600071E0CE010E94C606800F911FDF91CF91E3
:101070001F910F9108950E9428170F931F93CF93EC
:10108000DF93EC0188819981009759F02A813B8197
:101090002617370730F081E0DF91CF911F910F9134
:1010A00008958B016F5F7F4F0E946B16009759F078
:1010B000998388831B830A832C813D81232B59F7D5
:1010C000FC011082E8CF80E0E7CFCF93DF93EC0103
:1010D00088819981009711F00E94E2151982188287
:1010E0001D821C821B821A82DF91CF910895EF929C
:1010F000FF920F931F93CF93DF93EC017B01198233
:1011000018821B821A821D821C82FB010190002022
:10111000E9F731978F01061B170BB8010E943D08B4
:10112000811109C0CE01DF91CF911F910F91FF90E6
:10113000EF900C9465081D830C83B7018881998119
:10114000DF91CF911F910F91FF90EF900C94361784
:10115000CF92DF92EF92FF920F931F93CF93DF9383
:10116000CDB7DEB7A1970FB6F894DEBF0FBECDBFE7
:101170007C01CB01BA01F701118210821382128225
:10118000158214828E010F5F1F4F22E044E00E94FF
:1011900037106C01009771F0FC0101900020E9F715
:1011A00031978F01081B190BB801C7010E943D0838
:1011B000811112C0C7010E946508A1960FB6F8946C
:1011C000DEBF0FBECDBFDF91CF911F910F91FF907A
:1011D000EF90DF90CF900895F70115830483B60157
:1011E000808191810E943617E8CFEF92FF920F9392
:1011F0001F93CF93DF93EC01FB01E080F180E114BA
:10120000F10411F10481158101151105A9F08C81FA
:101210009D81080F191FB801CE010E943D08882347
:1012200099F0288139818C819D81B701820F931FAC
:101230000E9436171D830C83CE01DF91CF911F9141
:101240000F91FF90EF900895CE010E946508F4CFB2
:10125000FC0180819181009711F00C94E2150895B2
:101260000C94E2150C94E215CF92DF92EF92FF926C
:101270000F931F93CF93DF93EB01FB01349620E292
:10128000DF011D922A95E9F744E250E060E070E04A
:10129000488359836A837B83FC014481558166813D
:1012A00077814C835D836E837F834CE050E060E008
:1012B00070E0488759876A877B872FB7F8944091F9
:1012C000A9015091AA016091AB017091AC012FBFAF
:1012D000488B598B6A8B7B8B02811381C8010E94DA
:1012E0002704882349F0F80186818B3028F08D305F
:1012F00040F08551823070F160E070E080EC9FE753
:101300001BC0618170E090E080E00E9493122DECA0
:101310003CEC4CEC5DE30E94F2126B017C01F801A5
:10132000608170E090E080E00E9493129B01AC012C
:10133000C701B6010E942F146C8B7D8B8E8B9F8B07
:1013400081E0DF91CF911F910F91FF90EF90DF909F
:10135000CF9008956081718176276727762790E086
:1013600080E00E9491122DEC3CEC4CEC5DE30E947D
:10137000F212E2CF8F929F92AF92BF92EF92FF92C2
:101380001F93CF93DF93EB01FB01349620E2DF0143
:101390001D922A95E9F744E250E060E070E048834E
:1013A00059836A837B83FC014481558166817781FF
:1013B0004C835D836E837F834DE050E060E070E09E
:1013C000488759876A877B872FB7F8944091A9018E
:1013D0005091AA016091AB017091AC012FBF488B75
:1013E000598B6A8B7B8BE280F380C7010E942704B4
:1013F000882341F0F70186818C3009F455C038F418
:101400008B30E1F060E070E080EC9FE73EC08551FA
:101410008230C0F71281612F70E0762F6627662731
:101420007F778381682B90E080E00E9491122DEC01
:101430003CEC4CEC5DE30E94F21251C0628170E022
:1014400090E080E00E9491124B015C01F701138152
:1014500017FF0AC0AC019B0160E070E080E89FEBE1
:101460000E942E144B015C011F70612F70E090E010
:1014700080E00E9493122DEC3CEC4CEC5DE30E946A
:10148000F212A50194010E942F146C8B7D8B8E8B20
:101490009F8B81E0DF91CF911F91FF90EF90BF90E4
:1014A000AF909F908F9008951281612F70E090E02F
:1014B00080E00E9491124B015C01F70163816F7023
:1014C00070E090E080E00E9493122DEC3CEC4CEC3C
:1014D0005DE30E94F212A50194010E942F1417FFF0
:1014E000D4CF9058D2CFCF93DF93EB01FC01838907
:1014F0004BE050E065E671E08C30C1F058F44BE011
:1015000050E06FE571E08B3089F04BE050E067E729
:1015100071E00CC04BE050E06BE671E0853131F0DA
:101520004BE050E061E771E0863179F7CE010E942F
:101530003D171B86DF91CF9108950F931F93CF9393
:10154000DF938C01EB0188E2DB011D928A95E9F7BC
:10155000F801828193810E94730A81E090E0A0E00B
:10156000B0E08C879D87AE87BF87F8018481958125
:10157000A681B781888B998BAA8BBB8B8CE090E07E
:10158000A0E0B0E08C8B9D8BAE8BBF8BBE018281C7
:1015900093810E943305D8011296ED91FC918389C5
:1015A0008C3009F441C078F48B3009F1188E198E13
:1015B0001A8E1B8E1C8E1D8E1E8E1F8E18A219A2B7
:1015C0001AA21BA22CC08551823080F780E090E0E7
:1015D000A8ECB2E4888F998FAA8FBB8F1C8E1D8ECA
:1015E0001E8E1F8E8DEC9CECACECBDE314C080E035
:1015F00090E0A0EAB2E4888F998FAA8FBB8F80E039
:1016000090E0A0EAB1E48C8F9D8FAE8FBF8F80E019
:1016100090E0A0EAB0E488A399A3AAA3BBA3DF91BA
:10162000CF911F910F91089580E090E0AEEBB2E46E
:10163000E2CF0F931F93CF93DF938C01EB0188E2EE
:10164000DB011D928A95E9F7F801828193810E945E
:10165000730A81E090E0A0E0B0E08C879D87AE87C0
:10166000BF87F80184819581A681B781888B998B8A
:10167000AA8BBB8B8DE090E0A0E0B0E08C8B9D8BC3
:10168000AE8BBF8BBE01828193810E943305D8014E
:101690001296ED91FC9183898C3091F178F48B3026
:1016A000B1F0188E198E1A8E1B8E1C8E1D8E1E8EFA
:1016B0001F8E18A219A21AA21BA21DC08531A9F162
:1016C000863179F780E090E0AAEFB2E432C080E0A2
:1016D00090E0A8E4B2E4888F998FAA8FBB8F1C8E0C
:1016E0001D8E1E8E1F8E80E090E0A0E0B0E488A3E7
:1016F00099A3AAA3BBA3DF91CF911F910F91089546
:1017000080E090E0A0E7B2E4888F998FAA8FBB8F2A
:1017100080E090E0A0EAB1EC8C8F9D8FAE8FBF8F00
:1017200080E090E0A0E0BFE3E2CF80E090E0A0EABC
:10173000B2E4888F998FAA8FBB8F80E090E0A0E2FF
:10174000B2EC8C8F9D8FAE8FBF8F8DEC9CECACEC90
:10175000BDE3CDCF1F920F920FB60F9211242F939E
:101760003F938F939F93AF93BF938091A9019091E3
:10177000AA01A091AB01B091AC013091A40123E08A
:10178000230F2D3758F50196A11DB11D2093A401FB
:101790008093A9019093AA01A093AB01B093AC01EF
:1017A0008091A5019091A601A091A701B091A801F7
:1017B0000196A11DB11D8093A5019093A601A09350
:1017C000A701B093A801BF91AF919F918F913F91D5
:1017D0002F910F900FBE0F901F90189526E8230FA2
:1017E0000296A11DB11DD2CF1F920F920FB60F927C
:1017F00011242F933F934F935F936F937F938F9316
:101800009F93AF93BF93EF93FF938DEA91E00E9474
:101810005E03FF91EF91BF91AF919F918F917F9167
:101820006F915F914F913F912F910F900FBE0F904D
:101830001F9018951F920F920FB60F9211242F939D
:101840008F939F93EF93FF93E091BD01F091BE01C1
:101850008081E091C301F091C40182FD1BC09081A1
:101860008091C6018F5F8F732091C701821741F06D
:10187000E091C601F0E0E355FE4F958F8093C601DD
:10188000FF91EF919F918F912F910F900FBE0F902D
:101890001F9018958081F4CF0F931F93CF93DF9300
:1018A0001092B0011092AF0188EE93E0A0E0B0E09A
:1018B0008093B1019093B201A093B301B093B401AE
:1018C00082E191E09093AE018093AD0185EC90E0D0
:1018D0009093BA018093B90184EC90E09093BC019D
:1018E0008093BB0180EC90E09093BE018093BD019A
:1018F00081EC90E09093C0018093BF0182EC90E076
:101900009093C2018093C10186EC90E09093C40152
:101910008093C3011092C6011092C7011092C801B2
:101920001092C90121E632E088E0809366028BE0E4
:1019300080936702ECE6F3E0E491E0936802E8E567
:10194000F3E0E491E093690240E85EE360E070E078
:1019500040936E0250936F02609370027093710215
:101960008093740286E491E09093760280937502EE
:1019700030937802209377028FEF9FEFDC01809302
:10198000790290937A02A0937B02B0937C0248E3A1
:1019900051E050937E0240937D0230938002209369
:1019A0007F028093810290938202A0938302B0937E
:1019B000840210924D0210924C0284E291E09093C6
:1019C0004B0280934A0282E0809355028FEF80930E
:1019D000560283E08093570284E08093580285E0AA
:1019E0008093590286E080935A0287E080935B02DD
:1019F00010925C0210925D0210925E0210925F02E1
:101A0000C8E5D2E00CE512E061E089910E94330262
:101A10000C171D07C9F761E0809155020E9433023F
:101A2000809156028F3F19F061E00E94330261E01D
:101A3000809157020E94330210924E0260E0809122
:101A400055020E94E70160E0809157020E94E70181
:101A5000809156028F3F19F060E00E94E7018FEFFE
:101A6000809360021092540210925302DF91CF9142
:101A70001F910F910895CF93DF93CDB7DEB7E6970F
:101A80000FB6F894DEBF0FBECDBF789484B58260E8
:101A900084BD84B5816084BD85B5826085BD85B512
:101AA000816085BD80916E00816080936E00109290
:101AB000810080918100826080938100809181000B
:101AC000816080938100809180008160809380009C
:101AD0008091B10084608093B1008091B0008160FA
:101AE0008093B00080917A00846080937A00809126
:101AF0007A00826080937A0080917A00816080937E
:101B00007A0080917A00806880937A001092C100F8
:101B1000E091BD01F091BE0182E08083E091B901C6
:101B2000F091BA011082E091BB01F091BC018FEC01
:101B300080831092C501E091C101F091C20186E05D
:101B40008083E091BF01F091C0018081806180833A
:101B5000E091BF01F091C001808188608083E091B5
:101B6000BF01F091C001808180688083E091BF0156
:101B7000F091C00180818F7D808320E042E060E1B0
:101B80008AE492E00E942E066CE771E08AE492E01B
:101B90000E94C60681E00E94EC0567E871E08AE4D5
:101BA00092E00E94C60662E0809166020E943302C3
:101BB0002FB7F8948091A9019091AA01A091AB014F
:101BC000B091AC012FBF805D9740A109B10980930E
:101BD0006A0290936B02A0936C02B0936D0287E34C
:101BE0008093730268EB72E08DEA91E00E9427080F
:101BF00086E491E09AA789A7809177029091780274
:101C00009CA78BA78091790290917A02A0917B0288
:101C1000B0917C028DA79EA7AFA7B8ABBE016F5F46
:101C20007F4FCE0189960E94190B63E972E08DEA1D
:101C300091E00E94270860E872E08DEA91E00E943E
:101C4000270862E772E08DEA91E00E94BC02BE01C3
:101C50006F5F7F4F8DEA91E00E94C6066CE571E0F0
:101C60008DEA91E00E94C60664E672E08DEA91E09A
:101C70000E94BC026D857E858F8598890E94F7073A
:101C800066E572E08DEA91E00E94BC0269897A897A
:101C90008B899C890E94F70768E472E08DEA91E0E5
:101CA0000E94BC02698D7A8D8B8D9C8D42E00E94D2
:101CB0001B0764E472E08DEA91E00E94270866E366
:101CC00072E08DEA91E00E94BC026D8D7E8D8F8D59
:101CD00098A142E00E941B0762E372E08DEA91E066
:101CE0000E94270864E272E08DEA91E00E94BC0243
:101CF00069A17AA18BA19CA142E00E941B0760E22E
:101D000072E08DEA91E00E9427086BEF71E08DEAA6
:101D100091E00E94270888E391E09AA789A7809123
:101D20007F02909180029CA78BA780918102909165
:101D30008202A0918302B09184028DA79EA7AFA7D3
:101D4000B8ABBE016F5F7F4FCE0189960E949D0A9E
:101D50006BEE71E08DEA91E00E9427086DED71E075
:101D60008DEA91E00E94BC02BE016F5F7F4F8DEA59
:101D700091E00E94C6066CE571E08DEA91E00E9458
:101D8000C6066FEC71E08DEA91E00E94BC026D85A1
:101D90007E858F8598890E94F70761EC71E08DEA56
:101DA00091E00E94BC0269897A898B899C890E9492
:101DB000F70763EB71E08DEA91E00E94BC02698D48
:101DC0007A8D8B8D9C8D42E00E941B0761EB71E048
:101DD0008DEA91E00E94270863EA71E08DEA91E0C4
:101DE0000E94BC026D8D7E8D8F8D98A142E00E9475
:101DF0001B0761EA71E08DEA91E00E94270863E920
:101E000071E08DEA91E00E94BC0269A17AA18BA1E8
:101E10009CA142E00E941B0761E971E08DEA91E01C
:101E20000E9427086CE671E08DEA91E00E94270885
:101E30006DA17EA18FA198A528EE33E040E050E08F
:101E40000E9409142093A0013093A1014093A201A4
:101E50005093A30186E4C82E81E0D82E98E3A92EE2
:101E600091E0B92E20E0822E20E0922E6091A00118
:101E70007091A1018091A2019091A3010E94890219
:101E8000DAA6C9A680917702909178029CA78BA7C9
:101E90008091790290917A02A0917B02B0917C02AC
:101EA0008DA79EA7AFA7B8ABBE016F5F7F4FCE01D6
:101EB00089960E94BA096D897E898F89988D9B01C8
:101EC000AC010E9441156DE073E0811153C06FEFCA
:101ED00072E08DEA91E00E94BC026D897E898F8953
:101EE000988D42E00E941B0780E00E94EC054D891E
:101EF0005E896F89788DCE0189960E94A8086BE86B
:101F000071E0CE01C1960E947708BE01675D7F4FE8
:101F1000CE01C1960E94F5088C01FC01E480F58099
:101F2000F2E0EF0EF11CB7010E943D08882309F48E
:101F30009AC0F801208131818481958161E971E045
:101F4000820F931F0E943617F801F582E482F80190
:101F500044815581608171818AE492E00E94E002AF
:101F6000CE01C1960E942809CE0189960E942809B7
:101F70006BEF72E08DEA91E00E942708BAA6A9A64D
:101F800080917F02909180029CA78BA78091810213
:101F900090918202A0918302B09184028DA79EA7A6
:101FA000AFA7B8ABBE016F5F7F4FCE0189960E948D
:101FB00034096D897E898F89988D9B01AC010E94BF
:101FC000411565ED72E081113EC061EF72E08DEA6E
:101FD00091E00E94BC026D897E898F89988D42E0D4
:101FE0000E941B0781E00E94EC054D895E896F8984
:101FF000788DCE0189960E94A80864E971E0CE012F
:10200000C1960E947708BE01675D7F4FCE01C196E1
:102010000E94F508FC0144815581608171818AE448
:1020200092E00E94E002CE01C1960E942809CE01F2
:1020300089960E9428096FEE72E08AE492E00E947D
:1020400027086DEE72E08DEA91E00E942708811466
:10205000910409F40BCF0E944A03882309F406CFA8
:102060000E94000003CFC8010E94650870CFEF9264
:102070000F931F93CF93DF93E80134E047FD34E1E2
:10208000042E000C550B57FF03C051954195510983
:10209000E32E022F242FAE010E945510CE01DF91B6
:1020A000CF911F910F91EF900895A9E0B0E0EBE57B
:1020B000F0E10C94B6136A01F22EB02E102FFBE360
:1020C000AF2EA01608F41BE31F5F012F27E0AE011F
:1020D0004F5F5F4F0E94B411BC018981982F9970A6
:1020E000913009F43FC09BE2E1FC04C09E2D917049
:1020F000E0FC3AC05E2D5071E82FE87083FF46C0C7
:1021000084E0911101C083E0EF2DE81B8F1508F0EA
:10211000E0E0D6018E2F20E2552351F1992329F0DA
:10212000D6019C93C60101966C0196012D5F3F4F2D
:10213000E2FE24C08EE4D6018C9391E411969C9328
:10214000119712968C93D9018E2F90E281111BC0AA
:10215000E20FF32FF11D10828EEF9FEF2996ECE036
:102160000C94D2139DE2C6CF90E2C4CF2D93815040
:102170008111FCCFCE0ED11CE0E0D0CF8EE6D6018F
:102180008C9391E6DBCF9D938150E0CF482F447034
:1021900082FF3DC084E0911101C083E08F1510F4EF
:1021A000EF2DE81BD6018E2F20E2552309F199234C
:1021B00029F0D6019C93C60101966C0196012D5F12
:1021C0003F4FE2FE1BC089E4D6018C938EE411964A
:1021D0008C93119786E412968C93D9018E2F90E2FE
:1021E000882309F4B5CF9D938150FACF2D93815068
:1021F0008111FCCFCE0ED11CE0E0D9CF89E6D6010B
:102200008C938EE611968C93119786E6E4CF9B0112
:1022100077FF02C030E020E0A1E0B0E0911102C001
:10222000B0E0A0E0F9013196AE0FBF1F8B2C912CCE
:10223000BB2009F461C05401EFEFAE1ABE0AAA0D2B
:10224000BB1DFA161B0619F014F04F2D4A1B511135
:1022500088C0E3FC59C07601A42FB0E2A1114FC0A1
:10226000C40ED11C992309F45BC040E0D60111963D
:10227000F60190836D01552309F448C0012F060F24
:102280009A81582F507184FF03C0913309F4015093
:1022900010160CF047C0093008F008E0EEE2FE2E00
:1022A0005B01A01AB10885019194819491082F3F98
:1022B000320729F4D601FC92F60131966F016217BC
:1022C000730794F1021713077CF5DB01A21BB30B14
:1022D000AA24A394B12CAC0EBD1EAA0DBB1D119651
:1022E0008C9121503109D601119628153905F4F049
:1022F000F60180836D01DBCFB12CA12CA0CFF701BB
:10230000B1937F01A150AACF9111B0CFD601942FE4
:1023100050E302C05D9391509111FCCFC40ED11CCB
:1023200040E0ACCF01E0BACF80E3DBCF62177307A8
:1023300031F4963388F4953311F4552369F0F6019E
:102340008083FD01842F90E2811108C0A40FB11D8C
:102350001C9290E080E002CF81E3F1CF9193815015
:10236000F3CF911183CF8ACF283008F027E03327AD
:10237000DA01990F311D87FD9160009661057105A5
:1023800039F432602E5F3D9330E32A95E1F70895EA
:102390009F3F30F080387105610509F03C5F3C5F7C
:1023A0003D93913008F08068911DDF93CF931F9388
:1023B0000F93FF92EF92192F987F9695E92F96959C
:1023C0009695E90FFF27EE53FF4F99273327EE2409
:1023D000FF24A701E70105900894079428F4360F1D
:1023E000E71EF81E491F511D660F771F881F991F92
:1023F0000694A1F70590079428F4E70EF81E491FEC
:10240000561FC11D770F881F991F661F0694A1F7DD
:102410000590079428F4F80E491F561FC71FD11DB9
:10242000880F991F661F771F0694A1F705900794E0
:1024300020F4490F561FC71FD81F990F661F771F1B
:10244000881F0694A9F784911095177041F0D695CE
:10245000C79557954795F794E7941A95C1F7E8E61D
:10246000F0E06894159015913591659195910590DE
:102470007FE27395E118F10A430B560BC90BD009A3
:10248000C0F7E10CF11E431F561FC91FD01D7EF47B
:10249000703311F48A95E6CFE894015030F0080FBC
:1024A0000AF40027021708F4202F2395022F7A330D
:1024B00028F079E37D932A95E9F710C07D932A955A
:1024C00089F6069497956795379517951794E118AF
:1024D000F10A430B560BC90BD00998F023957E9156
:1024E00073957A3308F070E37C932013B8F77E91EC
:1024F00070617D9330F0839571E37D9370E32A954D
:10250000E1F71124EF90FF900F911F91CF91DF9190
:10251000992787FD909508950E94CE1208F481E0D6
:102520000895E89409C097FB3EF4909580957095C6
:1025300061957F4F8F4F9F4F9923A9F0F92F96E90F
:10254000BB279395F695879577956795B795F11184
:10255000F8CFFAF4BB0F11F460FF1BC06F5F7F4F21
:102560008F4F9F4F16C0882311F096E911C0772333
:1025700021F09EE8872F762F05C0662371F096E83C
:10258000862F70E060E02AF09A95660F771F881F0B
:10259000DAF7880F9695879597F90895990F0008AF
:1025A000550FAA0BE0E8FEEF16161706E807F90725
:1025B000C0F012161306E407F50798F0621B730BC0
:1025C000840B950B39F40A2661F0232B242B252B41
:1025D00021F408950A2609F4A140A6958FEF811DE4
:1025E000811D08950E9405130C9476130E946813B0
:1025F00038F00E946F1320F0952311F00C945F13B4
:102600000C94651311240C94AA130E94871370F381
:10261000959FC1F3950F50E0551F629FF001729F87
:10262000BB27F00DB11D639FAA27F00DB11DAA1F96
:10263000649F6627B00DA11D661F829F2227B00DE3
:10264000A11D621F739FB00DA11D621F839FA00D6E
:10265000611D221F749F3327A00D611D231F849FBE
:10266000600D211D822F762F6A2F11249F57504015
:102670009AF0F1F088234AF0EE0FFF1FBB1F661F90
:10268000771F881F91505040A9F79E3F510580F059
:102690000C945F130C94AA135F3FE4F3983ED4F3B9
:1026A000869577956795B795F795E7959F5FC1F7FD
:1026B000FE2B880F911D9695879597F9089597F9A8
:1026C0009F6780E870E060E008959FEF80EC0895D8
:1026D00000240A9416161706180609060895002401
:1026E0000A9412161306140605060895092E03947B
:1026F000000C11F4882352F0BB0F40F4BF2B11F4EF
:1027000060FF04C06F5F7F4F8F4F9F4F089557FD4D
:102710009058440F551F59F05F3F71F04795880F4F
:1027200097FB991F61F09F3F79F0879508951216E6
:1027300013061406551FF2CF4695F1DF08C0161692
:1027400017061806991FF1CF869571056105089443
:102750000895E894BB2766277727CB0197F908955A
:102760002F923F924F925F926F927F928F929F92A1
:10277000AF92BF92CF92DF92EF92FF920F931F938F
:10278000CF93DF93CDB7DEB7CA1BDB0B0FB6F89440
:10279000DEBF0FBECDBF09942A88398848885F8480
:1027A0006E847D848C849B84AA84B984C884DF80F1
:1027B000EE80FD800C811B81AA81B981CE0FD11DD5
:1027C0000FB6F894DEBF0FBECDBFED010895A1E2B4
:1027D0001A2EAA1BBB1BFD010DC0AA1FBB1FEE1F9B
:1027E000FF1FA217B307E407F50720F0A21BB30BE6
:1027F000E40BF50B661F771F881F991F1A9469F762
:1028000060957095809590959B01AC01BD01CF01BD
:102810000895052E97FB1EF400940E94201457FD86
:1028200007D00E94E71307FC03D04EF40C94201449
:1028300050954095309521953F4F4F4F5F4F0895EC
:1028400090958095709561957F4F8F4F9F4F08951C
:10285000EE0FFF1F0590F491E02D09945058BB270F
:10286000AA270E9446140C9476130E94681338F02D
:102870000E946F1320F039F49F3F19F426F40C9452
:1028800065130EF4E095E7FB0C945F13E92F0E94AB
:10289000871358F3BA17620773078407950720F068
:1028A00079F4A6F50C94A9130EF4E0950B2EBA2F2B
:1028B000A02D0B01B90190010C01CA01A001112446
:1028C000FF27591B99F0593F50F4503E68F11A16F2
:1028D000F040A22F232F342F4427585FF3CF469583
:1028E00037952795A795F0405395C9F77EF41F16A5
:1028F000BA0B620B730B840BBAF09150A1F0FF0F6F
:10290000BB1F661F771F881FC2F70EC0BA0F621F5A
:10291000731F841F48F4879577956795B795F7954A
:102920009E3F08F0B0CF9395880F08F09927EE0FDF
:102930009795879508950E94AF140C9476130E9482
:102940006F1358F00E94681340F029F45F3F29F09C
:102950000C945F1351110C94AA130C9465130E94EC
:10296000871368F39923B1F3552391F3951B550B06
:10297000BB27AA2762177307840738F09F5F5F4F52
:10298000220F331F441FAA1FA9F335D00E2E3AF091
:10299000E0E832D091505040E695001CCAF72BD0A9
:1029A000FE2F29D0660F771F881FBB1F26173707FA
:1029B0004807AB07B0E809F0BB0B802DBF01FF272C
:1029C00093585F4F3AF09E3F510578F00C945F1397
:1029D0000C94AA135F3FE4F3983ED4F38695779561
:1029E0006795B795F7959F5FC9F7880F911D9695E5
:1029F000879597F90895E1E0660F771F881FBB1F41
:102A0000621773078407BA0720F0621B730B840BED
:102A1000BA0BEE1F88F7E09508950E948F1388F097
:102A20009F5798F0B92F9927B751B0F0E1F0660F92
:102A3000771F881F991F1AF0BA95C9F714C0B130D3
:102A400091F00E94A913B1E008950C94A913672F87
:102A5000782F8827B85F39F0B93FCCF38695779502
:102A60006795B395D9F73EF49095809570956195EB
:102A70007F4F8F4F9F4F08950E94CE1208F48FEF23
:102A800008950E94CE12880B990B08950F931F93FF
:102A9000CF93DF938230910510F482E090E0E091D3
:102AA0008702F091880230E020E0B0E0A0E03097AB
:102AB00099F42115310509F44AC0281B390B24303B
:102AC0003105D8F58A819B816115710589F1FB017A
:102AD00093838283FE0111C0408151810281138161
:102AE00048175907E0F04817590799F4109761F013
:102AF00012960C93129713961C933296CF01DF9186
:102B0000CF911F910F91089500938702109388022F
:102B1000F4CF2115310551F04217530738F0A901C0
:102B2000DB019A01BD01DF01F801C1CFEF01F9CF4F
:102B30009093880280938702CDCFFE01E20FF31FAE
:102B4000819391932250310939832883D7CF2091E3
:102B5000850230918602232B41F4209102013091AD
:102B60000301309386022093850220910001309169
:102B700001012115310541F42DB73EB74091040103
:102B800050910501241B350BE0918502F0918602DE
:102B9000E217F307A0F42E1B3F0B2817390778F034
:102BA000AC014E5F5F4F2417350748F04E0F5F1F93
:102BB0005093860240938502819391939FCFF0E0DA
:102BC000E0E09CCFCF93DF930097E9F0FC013297D0
:102BD00013821282A0918702B0918802ED0130E049
:102BE00020E01097A1F420813181820F931F209162
:102BF0008502309186022817390709F061C0F093E9
:102C00008602E0938502DF91CF910895EA01CE1705
:102C1000DF07E8F54A815B819E0141155105B1F757
:102C2000E901FB83EA8349915991C40FD51FEC1741
:102C3000FD0761F4808191810296840F951FE9015F
:102C400099838883828193819B838A83F0E0E0E08B
:102C500012968D919C9113970097B9F52D913C9107
:102C60001197CD010296820F931F2091850230911A
:102C700086022817390739F6309751F510928802E5
:102C800010928702B0938602A0938502BCCFD383B3
:102C9000C28340815181840F951FC817D90761F401
:102CA0004E5F5F4F88819981480F591F5183408340
:102CB0008A819B81938382832115310509F0B0CFEE
:102CC000F0938802E09387029ECFFD01DC01C0CF24
:102CD00013821282D7CFB0E0A0E0E1E7F6E10C94D6
:102CE000B2138C01009751F4CB010E9446158C0160
:102CF000C801CDB7DEB7E0E10C94CE13FC01E60FBE
:102D0000F71F9C0122503109E217F30708F49DC018
:102D1000D901CD91DC911197C617D70798F0C5302E
:102D2000D10530F3CE0104978617970708F3C61B29
:102D3000D70B2297C193D1936D937C93CF010E94BF
:102D4000E215D6CF5B01AC1ABD0A4C018C0E9D1E5C
:102D5000A0918702B0918802512C412CF12CE12CDA
:102D6000109731F58091850290918602881599051A
:102D700009F05CC04616570608F058C08091000163
:102D800090910101009741F48DB79EB740910401E5
:102D900050910501841B950BE817F90708F055C001
:102DA000F0938602E0938502F90171836083A0CFDE
:102DB0008D919C91119712966C90129713967C901E
:102DC0001397A815B90559F56C0142E0C40ED11C42
:102DD000CA14DB0420F1AC014A195B09DA0112962E
:102DE000159780F06282738251834083D9016D937D
:102DF0007C93E114F10471F0D7011396FC93EE93E8
:102E0000129776CF22968C0F9D1FF90191838083B4
:102E1000F301EFCFF0938802E093870269CF481661
:102E2000590608F42C017D01D3019ACFCB010E94F1
:102E300046157C01009749F0AE01B8010E942D179C
:102E4000C8010E94E215870153CF10E000E050CF87
:102E500081E090E0F8940C944C17FB01DC0102C077
:102E600001900D9241505040D8F70895FB01DC01CC
:102E700001900D920020E1F70895FB01DC01415023
:102E8000504048F001900D920020C9F701C01D92FA
:0C2E900041505040E0F70895F894FFCF47
:102E9C0000008902800000401454004010500000D3
:102EAC0000008003E0020D03CD033E031C0330033E
:102EBC0000000000D905E002C106C0062E068F05F1
:102ECC007C05AB0500000000C4063209C5063409B8
:102EDC009D0A00000000C4063009C506BA09190B8A
:102EEC006E616E00696E66006F7666000D0A0044B6
:102EFC004854313100444854313200444854323142
:102F0C00004448543232004448543F007475726E89
:102F1C00696E67206F6E002E2E2E0074656D703AF0
:102F2C000027430068756D69646974793A20000064
:00000001FF
